{
    "abi": [
        {
            "type": "function",
            "name": "addOwner",
            "inputs": [
                {
                    "name": "keyHash",
                    "type": "bytes32",
                    "internalType": "bytes32"
                },
                {
                    "name": "ownerKeyHash",
                    "type": "bytes32",
                    "internalType": "bytes32"
                }
            ],
            "outputs": [],
            "stateMutability": "nonpayable"
        },
        {
            "type": "function",
            "name": "eip712Domain",
            "inputs": [],
            "outputs": [
                {
                    "name": "fields",
                    "type": "bytes1",
                    "internalType": "bytes1"
                },
                {
                    "name": "name",
                    "type": "string",
                    "internalType": "string"
                },
                {
                    "name": "version",
                    "type": "string",
                    "internalType": "string"
                },
                {
                    "name": "chainId",
                    "type": "uint256",
                    "internalType": "uint256"
                },
                {
                    "name": "verifyingContract",
                    "type": "address",
                    "internalType": "address"
                },
                {
                    "name": "salt",
                    "type": "bytes32",
                    "internalType": "bytes32"
                },
                {
                    "name": "extensions",
                    "type": "uint256[]",
                    "internalType": "uint256[]"
                }
            ],
            "stateMutability": "view"
        },
        {
            "type": "function",
            "name": "getConfig",
            "inputs": [
                {
                    "name": "account",
                    "type": "address",
                    "internalType": "address"
                },
                {
                    "name": "keyHash",
                    "type": "bytes32",
                    "internalType": "bytes32"
                }
            ],
            "outputs": [
                {
                    "name": "threshold",
                    "type": "uint256",
                    "internalType": "uint256"
                },
                {
                    "name": "ownerKeyHashes",
                    "type": "bytes32[]",
                    "internalType": "bytes32[]"
                }
            ],
            "stateMutability": "view"
        },
        {
            "type": "function",
            "name": "initConfig",
            "inputs": [
                {
                    "name": "keyHash",
                    "type": "bytes32",
                    "internalType": "bytes32"
                },
                {
                    "name": "threshold",
                    "type": "uint256",
                    "internalType": "uint256"
                },
                {
                    "name": "ownerKeyHashes",
                    "type": "bytes32[]",
                    "internalType": "bytes32[]"
                }
            ],
            "outputs": [],
            "stateMutability": "nonpayable"
        },
        {
            "type": "function",
            "name": "isValidSignatureWithKeyHash",
            "inputs": [
                {
                    "name": "digest",
                    "type": "bytes32",
                    "internalType": "bytes32"
                },
                {
                    "name": "keyHash",
                    "type": "bytes32",
                    "internalType": "bytes32"
                },
                {
                    "name": "signature",
                    "type": "bytes",
                    "internalType": "bytes"
                }
            ],
            "outputs": [
                {
                    "name": "magicValue",
                    "type": "bytes4",
                    "internalType": "bytes4"
                }
            ],
            "stateMutability": "view"
        },
        {
            "type": "function",
            "name": "removeOwner",
            "inputs": [
                {
                    "name": "keyHash",
                    "type": "bytes32",
                    "internalType": "bytes32"
                },
                {
                    "name": "ownerKeyHash",
                    "type": "bytes32",
                    "internalType": "bytes32"
                }
            ],
            "outputs": [],
            "stateMutability": "nonpayable"
        },
        {
            "type": "function",
            "name": "setThreshold",
            "inputs": [
                {
                    "name": "keyHash",
                    "type": "bytes32",
                    "internalType": "bytes32"
                },
                {
                    "name": "threshold",
                    "type": "uint256",
                    "internalType": "uint256"
                }
            ],
            "outputs": [],
            "stateMutability": "nonpayable"
        },
        {
            "type": "error",
            "name": "ConfigAlreadySet",
            "inputs": []
        },
        {
            "type": "error",
            "name": "InvalidKeyHash",
            "inputs": []
        },
        {
            "type": "error",
            "name": "InvalidThreshold",
            "inputs": []
        },
        {
            "type": "error",
            "name": "OwnerNotFound",
            "inputs": []
        }
    ],
    "bytecode": {
        "object": "0x6080604052348015600e575f5ffd5b50610c558061001c5f395ff3fe608060405234801561000f575f5ffd5b506004361061007a575f3560e01c806384b0196e1161005857806384b0196e146100d05780638afc93b414610131578063a4db7b4d1461015d578063aa32d86b14610170575f5ffd5b806301faf36c1461007e5780632aca9072146100a85780632d2156b9146100bd575b5f5ffd5b61009161008c36600461076a565b610183565b60405161009f92919061079f565b60405180910390f35b6100bb6100b63660046107ec565b61021f565b005b6100bb6100cb3660046107ec565b61033f565b604080518082018252600e81526d26bab63a34a9b4b3a9b4b3b732b960911b602080830191909152825180840184526005815264302e302e3160d81b8183015283515f8082529281019485905261009f94600f60f81b94934692309261083a565b61014461013f36600461093c565b610377565b6040516001600160e01b0319909116815260200161009f565b6100bb61016b3660046107ec565b610586565b6100bb61017e3660046109eb565b6105d8565b6001600160a01b0382165f90815260208181526040808320848452825280832081518083018352815481526001820180548451818702810187019095528085526060958795939493858201939092909183018282801561020057602002820191905f5260205f20905b8154815260200190600101908083116101ec575b5050509190925250508151602090920151919791965090945050505050565b61022882610686565b335f9081526020818152604080832085845290915281206001810180549192909190805b828110156102ec578584828154811061026757610267610a90565b905f5260205f200154036102e45783610281600185610ab8565b8154811061029157610291610a90565b905f5260205f2001548482815481106102ac576102ac610a90565b905f5260205f200181905550838054806102c8576102c8610ad1565b600190038181905f5260205f20015f90559055600191506102ec565b60010161024c565b508061030b5760405163ae4575cd60e01b815260040160405180910390fd5b8354610318600184610ab8565b10156103375760405163aabd5a0960e01b815260040160405180910390fd5b505050505050565b61034882610686565b335f90815260208181526040808320948352938152928120600190810180549182018155825292902090910155565b5f5f8280602001905181019061038d9190610ae5565b335f90815260208181526040808320888452825280832081518083018352815481526001820180548451818702810187019095528085529697509495909491938581019392919083018282801561040157602002820191905f5260205f20905b8154815260200190600101908083116103ed575b50505050508152505090505f5f5b835181101561056f575f5f336001600160a01b0316630cef73b48b88868151811061043c5761043c610a90565b60200260200101516040518363ffffffff1660e01b8152600401610461929190610bd6565b6040805180830381865afa15801561047b573d5f5f3e3d5ffd5b505050506040513d601f19601f8201168201806040525081019061049f9190610bf6565b91509150816104af575050610567565b5f5b85602001515181101561053f5781866020015182815181106104d5576104d5610a90565b60200260200101510361053757846104ec81610c26565b9550505f5f1b8660200151828151811061050857610508610a90565b60209081029190910101528551850361053257506322bf24ed60e21b965061057f95505050505050565b61053f565b6001016104b1565b856020015151810361056357506001600160e01b0319965061057f95505050505050565b5050505b60010161040f565b506001600160e01b031993505050505b9392505050565b61058f82610686565b335f9081526020818152604080832085845290915290208115806105b65750600181015482115b156105d45760405163aabd5a0960e01b815260040160405180910390fd5b5550565b8115806105e55750805182115b156106035760405163aabd5a0960e01b815260040160405180910390fd5b335f90815260208181526040808320868452909152902080541561063a5760405163c7c5196560e01b815260040160405180910390fd5b6040805180820182528481526020808201858152335f908152808352848120898252835293909320825181559251805192939261067d926001850192019061070d565b50505050505050565b5f336001600160a01b031663be766d156040518163ffffffff1660e01b8152600401602060405180830381865afa1580156106c3573d5f5f3e3d5ffd5b505050506040513d601f19601f820116820180604052508101906106e79190610c3e565b9050818114610709576040516381255f6d60e01b815260040160405180910390fd5b5050565b828054828255905f5260205f20908101928215610746579160200282015b8281111561074657825182559160200191906001019061072b565b50610752929150610756565b5090565b5b80821115610752575f8155600101610757565b5f5f6040838503121561077b575f5ffd5b82356001600160a01b0381168114610791575f5ffd5b946020939093013593505050565b5f60408201848352604060208401528084518083526060850191506020860192505f5b818110156107e05783518352602093840193909201916001016107c2565b50909695505050505050565b5f5f604083850312156107fd575f5ffd5b50508035926020909101359150565b5f81518084528060208401602086015e5f602082860101526020601f19601f83011685010191505092915050565b60ff60f81b8816815260e060208201525f61085860e083018961080c565b828103604084015261086a818961080c565b606084018890526001600160a01b038716608085015260a0840186905283810360c0850152845180825260208087019350909101905f5b818110156108bf5783518352602093840193909201916001016108a1565b50909b9a5050505050505050505050565b634e487b7160e01b5f52604160045260245ffd5b604051601f8201601f1916810167ffffffffffffffff8111828210171561090d5761090d6108d0565b604052919050565b5f67ffffffffffffffff82111561092e5761092e6108d0565b50601f01601f191660200190565b5f5f5f6060848603121561094e575f5ffd5b8335925060208401359150604084013567ffffffffffffffff811115610972575f5ffd5b8401601f81018613610982575f5ffd5b803561099561099082610915565b6108e4565b8181528760208385010111156109a9575f5ffd5b816020840160208301375f602083830101528093505050509250925092565b5f67ffffffffffffffff8211156109e1576109e16108d0565b5060051b60200190565b5f5f5f606084860312156109fd575f5ffd5b8335925060208401359150604084013567ffffffffffffffff811115610a21575f5ffd5b8401601f81018613610a31575f5ffd5b8035610a3f610990826109c8565b8082825260208201915060208360051b850101925088831115610a60575f5ffd5b6020840193505b82841015610a82578335825260209384019390910190610a67565b809450505050509250925092565b634e487b7160e01b5f52603260045260245ffd5b634e487b7160e01b5f52601160045260245ffd5b81810381811115610acb57610acb610aa4565b92915050565b634e487b7160e01b5f52603160045260245ffd5b5f60208284031215610af5575f5ffd5b815167ffffffffffffffff811115610b0b575f5ffd5b8201601f81018413610b1b575f5ffd5b8051610b29610990826109c8565b8082825260208201915060208360051b850101925086831115610b4a575f5ffd5b602084015b83811015610bcb57805167ffffffffffffffff811115610b6d575f5ffd5b8501603f81018913610b7d575f5ffd5b6020810151610b8e61099082610915565b8181526040838301018b1015610ba2575f5ffd5b8160408401602083015e5f60208383010152808652505050602083019250602081019050610b4f565b509695505050505050565b828152604060208201525f610bee604083018461080c565b949350505050565b5f5f60408385031215610c07575f5ffd5b82518015158114610c16575f5ffd5b6020939093015192949293505050565b5f60018201610c3757610c37610aa4565b5060010190565b5f60208284031215610c4e575f5ffd5b505191905056",
        "linkReferences": {}
    },
    "methodIdentifiers": {
        "addOwner(bytes32,bytes32)": "2d2156b9",
        "eip712Domain()": "84b0196e",
        "getConfig(address,bytes32)": "01faf36c",
        "initConfig(bytes32,uint256,bytes32[])": "aa32d86b",
        "isValidSignatureWithKeyHash(bytes32,bytes32,bytes)": "8afc93b4",
        "removeOwner(bytes32,bytes32)": "2aca9072",
        "setThreshold(bytes32,uint256)": "a4db7b4d"
    },
    "id": 66
}